{
  "contractName": "UAIRegistry",
  "abi": [
    {
      "inputs": [
        {
          "internalType": "address",
          "name": "hubAddress",
          "type": "address"
        }
      ],
      "stateMutability": "nonpayable",
      "type": "constructor"
    },
    {
      "anonymous": false,
      "inputs": [
        {
          "indexed": true,
          "internalType": "uint256",
          "name": "UAI",
          "type": "uint256"
        },
        {
          "indexed": true,
          "internalType": "bytes32",
          "name": "stateCommitHash",
          "type": "bytes32"
        }
      ],
      "name": "AssetCreated",
      "type": "event"
    },
    {
      "anonymous": false,
      "inputs": [
        {
          "indexed": true,
          "internalType": "uint256",
          "name": "UAI",
          "type": "uint256"
        },
        {
          "indexed": true,
          "internalType": "bytes32",
          "name": "stateCommitHash",
          "type": "bytes32"
        }
      ],
      "name": "AssetUpdated",
      "type": "event"
    },
    {
      "anonymous": false,
      "inputs": [
        {
          "indexed": true,
          "internalType": "address",
          "name": "previousOwner",
          "type": "address"
        },
        {
          "indexed": true,
          "internalType": "address",
          "name": "newOwner",
          "type": "address"
        }
      ],
      "name": "OwnershipTransferred",
      "type": "event"
    },
    {
      "anonymous": false,
      "inputs": [
        {
          "indexed": true,
          "internalType": "bytes32",
          "name": "UAI",
          "type": "bytes32"
        },
        {
          "indexed": true,
          "internalType": "uint256",
          "name": "amount",
          "type": "uint256"
        },
        {
          "indexed": true,
          "internalType": "address",
          "name": "depositor",
          "type": "address"
        }
      ],
      "name": "TokensDepositedToAsset",
      "type": "event"
    },
    {
      "inputs": [
        {
          "internalType": "uint256",
          "name": "",
          "type": "uint256"
        }
      ],
      "name": "assetRecords",
      "outputs": [
        {
          "internalType": "uint256",
          "name": "creationTimestamp",
          "type": "uint256"
        },
        {
          "internalType": "address",
          "name": "controller",
          "type": "address"
        },
        {
          "internalType": "bytes32",
          "name": "stateCommitHash",
          "type": "bytes32"
        },
        {
          "internalType": "uint256",
          "name": "size",
          "type": "uint256"
        },
        {
          "internalType": "uint256",
          "name": "priceLimit",
          "type": "uint256"
        },
        {
          "internalType": "uint256",
          "name": "stake",
          "type": "uint256"
        }
      ],
      "stateMutability": "view",
      "type": "function",
      "constant": true
    },
    {
      "inputs": [
        {
          "internalType": "bytes32",
          "name": "",
          "type": "bytes32"
        }
      ],
      "name": "assetStake",
      "outputs": [
        {
          "internalType": "uint256",
          "name": "",
          "type": "uint256"
        }
      ],
      "stateMutability": "view",
      "type": "function",
      "constant": true
    },
    {
      "inputs": [],
      "name": "hub",
      "outputs": [
        {
          "internalType": "contract Hub",
          "name": "",
          "type": "address"
        }
      ],
      "stateMutability": "view",
      "type": "function",
      "constant": true
    },
    {
      "inputs": [],
      "name": "owner",
      "outputs": [
        {
          "internalType": "address",
          "name": "",
          "type": "address"
        }
      ],
      "stateMutability": "view",
      "type": "function",
      "constant": true
    },
    {
      "inputs": [],
      "name": "renounceOwnership",
      "outputs": [],
      "stateMutability": "nonpayable",
      "type": "function"
    },
    {
      "inputs": [
        {
          "internalType": "address",
          "name": "newOwner",
          "type": "address"
        }
      ],
      "name": "transferOwnership",
      "outputs": [],
      "stateMutability": "nonpayable",
      "type": "function"
    },
    {
      "inputs": [
        {
          "internalType": "bytes32",
          "name": "stateCommitHash",
          "type": "bytes32"
        },
        {
          "internalType": "uint256",
          "name": "tokenAmount",
          "type": "uint256"
        },
        {
          "internalType": "uint256",
          "name": "size",
          "type": "uint256"
        },
        {
          "internalType": "uint256",
          "name": "holdingTimeInSeconds",
          "type": "uint256"
        }
      ],
      "name": "createAsset",
      "outputs": [
        {
          "internalType": "uint256",
          "name": "",
          "type": "uint256"
        }
      ],
      "stateMutability": "nonpayable",
      "type": "function"
    },
    {
      "inputs": [
        {
          "internalType": "uint256",
          "name": "blockNumber",
          "type": "uint256"
        },
        {
          "internalType": "uint256",
          "name": "numberOfEpochs",
          "type": "uint256"
        },
        {
          "internalType": "uint256",
          "name": "blockTime",
          "type": "uint256"
        },
        {
          "internalType": "uint256",
          "name": "holdingTimeInSeconds",
          "type": "uint256"
        }
      ],
      "name": "generateEpochs",
      "outputs": [
        {
          "internalType": "uint256[]",
          "name": "",
          "type": "uint256[]"
        }
      ],
      "stateMutability": "pure",
      "type": "function",
      "constant": true
    },
    {
      "inputs": [
        {
          "internalType": "uint256",
          "name": "UAI",
          "type": "uint256"
        }
      ],
      "name": "getEpochs",
      "outputs": [
        {
          "internalType": "uint256[]",
          "name": "",
          "type": "uint256[]"
        }
      ],
      "stateMutability": "view",
      "type": "function",
      "constant": true
    },
    {
      "inputs": [
        {
          "internalType": "uint256",
          "name": "UAI",
          "type": "uint256"
        },
        {
          "internalType": "uint256",
          "name": "blockNumber",
          "type": "uint256"
        }
      ],
      "name": "getEpoch",
      "outputs": [
        {
          "internalType": "uint256",
          "name": "",
          "type": "uint256"
        }
      ],
      "stateMutability": "view",
      "type": "function",
      "constant": true
    },
    {
      "inputs": [
        {
          "internalType": "uint256",
          "name": "UAI",
          "type": "uint256"
        }
      ],
      "name": "getEpoch",
      "outputs": [
        {
          "internalType": "uint256",
          "name": "",
          "type": "uint256"
        }
      ],
      "stateMutability": "view",
      "type": "function",
      "constant": true
    },
    {
      "inputs": [
        {
          "internalType": "uint256",
          "name": "UAI",
          "type": "uint256"
        },
        {
          "internalType": "uint256",
          "name": "epoch",
          "type": "uint256"
        }
      ],
      "name": "isEpochActive",
      "outputs": [
        {
          "internalType": "bool",
          "name": "",
          "type": "bool"
        }
      ],
      "stateMutability": "view",
      "type": "function",
      "constant": true
    },
    {
      "inputs": [
        {
          "internalType": "bytes32",
          "name": "x",
          "type": "bytes32"
        },
        {
          "internalType": "bytes32",
          "name": "y",
          "type": "bytes32"
        }
      ],
      "name": "hammingDistance",
      "outputs": [
        {
          "internalType": "uint256",
          "name": "",
          "type": "uint256"
        }
      ],
      "stateMutability": "view",
      "type": "function",
      "constant": true
    },
    {
      "inputs": [
        {
          "internalType": "uint256",
          "name": "UAI",
          "type": "uint256"
        },
        {
          "internalType": "uint256",
          "name": "blockNumber",
          "type": "uint256"
        },
        {
          "internalType": "address",
          "name": "identity",
          "type": "address"
        }
      ],
      "name": "getChallenge",
      "outputs": [
        {
          "internalType": "uint256",
          "name": "",
          "type": "uint256"
        }
      ],
      "stateMutability": "view",
      "type": "function",
      "constant": true
    },
    {
      "inputs": [
        {
          "internalType": "uint256",
          "name": "UAI",
          "type": "uint256"
        },
        {
          "internalType": "uint256",
          "name": "blockNumber",
          "type": "uint256"
        },
        {
          "internalType": "address",
          "name": "identity",
          "type": "address"
        }
      ],
      "name": "calculateChallenge",
      "outputs": [
        {
          "internalType": "uint256",
          "name": "",
          "type": "uint256"
        }
      ],
      "stateMutability": "view",
      "type": "function",
      "constant": true
    },
    {
      "inputs": [
        {
          "internalType": "uint256",
          "name": "UAI",
          "type": "uint256"
        },
        {
          "internalType": "uint256",
          "name": "epoch",
          "type": "uint256"
        },
        {
          "internalType": "address",
          "name": "identity",
          "type": "address"
        }
      ],
      "name": "getContributionRank",
      "outputs": [
        {
          "internalType": "uint256",
          "name": "",
          "type": "uint256"
        }
      ],
      "stateMutability": "view",
      "type": "function",
      "constant": true
    },
    {
      "inputs": [
        {
          "internalType": "uint256",
          "name": "UAI",
          "type": "uint256"
        }
      ],
      "name": "getContributors",
      "outputs": [
        {
          "internalType": "bytes32[][]",
          "name": "",
          "type": "bytes32[][]"
        },
        {
          "internalType": "uint256[][]",
          "name": "",
          "type": "uint256[][]"
        },
        {
          "internalType": "uint256[][]",
          "name": "",
          "type": "uint256[][]"
        },
        {
          "internalType": "uint256[]",
          "name": "",
          "type": "uint256[]"
        }
      ],
      "stateMutability": "view",
      "type": "function",
      "constant": true
    },
    {
      "inputs": [
        {
          "internalType": "uint256",
          "name": "UAI",
          "type": "uint256"
        },
        {
          "internalType": "uint256",
          "name": "blockNumber",
          "type": "uint256"
        },
        {
          "internalType": "bytes32[]",
          "name": "proof",
          "type": "bytes32[]"
        },
        {
          "internalType": "bytes32",
          "name": "leaf",
          "type": "bytes32"
        },
        {
          "internalType": "uint256",
          "name": "price",
          "type": "uint256"
        },
        {
          "internalType": "address",
          "name": "identity",
          "type": "address"
        }
      ],
      "name": "answerChallenge",
      "outputs": [],
      "stateMutability": "nonpayable",
      "type": "function"
    },
    {
      "inputs": [
        {
          "internalType": "uint256",
          "name": "UAI",
          "type": "uint256"
        },
        {
          "internalType": "uint256",
          "name": "epoch",
          "type": "uint256"
        },
        {
          "internalType": "address",
          "name": "identity",
          "type": "address"
        }
      ],
      "name": "getReward",
      "outputs": [],
      "stateMutability": "nonpayable",
      "type": "function"
    },
    {
      "inputs": [
        {
          "internalType": "uint256",
          "name": "UAI",
          "type": "uint256"
        },
        {
          "internalType": "bytes32",
          "name": "newStateCommitHash",
          "type": "bytes32"
        }
      ],
      "name": "updateAsset",
      "outputs": [
        {
          "internalType": "uint256",
          "name": "",
          "type": "uint256"
        }
      ],
      "stateMutability": "nonpayable",
      "type": "function"
    },
    {
      "inputs": [
        {
          "internalType": "uint256",
          "name": "UAI",
          "type": "uint256"
        }
      ],
      "name": "getAssetStateCommitHash",
      "outputs": [
        {
          "internalType": "bytes32",
          "name": "stateCommitHash",
          "type": "bytes32"
        }
      ],
      "stateMutability": "view",
      "type": "function",
      "constant": true
    },
    {
      "inputs": [
        {
          "internalType": "uint256",
          "name": "UAI",
          "type": "uint256"
        }
      ],
      "name": "getAssetOwner",
      "outputs": [
        {
          "internalType": "address",
          "name": "owner",
          "type": "address"
        }
      ],
      "stateMutability": "view",
      "type": "function",
      "constant": true
    },
    {
      "inputs": [
        {
          "internalType": "uint256",
          "name": "UAI",
          "type": "uint256"
        }
      ],
      "name": "getAssetCreationTimestamp",
      "outputs": [
        {
          "internalType": "uint256",
          "name": "creationTimestamp",
          "type": "uint256"
        }
      ],
      "stateMutability": "view",
      "type": "function",
      "constant": true
    },
    {
      "inputs": [],
      "name": "getNumberOfEpochs",
      "outputs": [
        {
          "internalType": "uint256",
          "name": "",
          "type": "uint256"
        }
      ],
      "stateMutability": "view",
      "type": "function",
      "constant": true
    },
    {
      "inputs": [
        {
          "internalType": "uint256",
          "name": "numberOfEpochs",
          "type": "uint256"
        }
      ],
      "name": "setNumberOfEpochs",
      "outputs": [],
      "stateMutability": "nonpayable",
      "type": "function"
    },
    {
      "inputs": [],
      "name": "getBlockTime",
      "outputs": [
        {
          "internalType": "uint256",
          "name": "",
          "type": "uint256"
        }
      ],
      "stateMutability": "view",
      "type": "function",
      "constant": true
    },
    {
      "inputs": [
        {
          "internalType": "uint256",
          "name": "blockTime",
          "type": "uint256"
        }
      ],
      "name": "setBlockTime",
      "outputs": [],
      "stateMutability": "nonpayable",
      "type": "function"
    },
    {
      "inputs": [],
      "name": "getNumberOfHolders",
      "outputs": [
        {
          "internalType": "uint256",
          "name": "",
          "type": "uint256"
        }
      ],
      "stateMutability": "view",
      "type": "function",
      "constant": true
    },
    {
      "inputs": [
        {
          "internalType": "uint256",
          "name": "numberOfHolders",
          "type": "uint256"
        }
      ],
      "name": "setNumberOfHolders",
      "outputs": [],
      "stateMutability": "nonpayable",
      "type": "function"
    },
    {
      "inputs": [],
      "name": "getEpochValidityInBlocks",
      "outputs": [
        {
          "internalType": "uint256",
          "name": "",
          "type": "uint256"
        }
      ],
      "stateMutability": "view",
      "type": "function",
      "constant": true
    },
    {
      "inputs": [
        {
          "internalType": "uint256",
          "name": "epochValidityInBlocks",
          "type": "uint256"
        }
      ],
      "name": "setEpochValidityInBlocks",
      "outputs": [],
      "stateMutability": "nonpayable",
      "type": "function"
    }
  ],
  "bytecode": "0x60806040523480156200001157600080fd5b506040516200663d3803806200663d83398181016040528101906200003791906200061c565b620000576200004b620004e660201b60201c565b620004ee60201b60201c565b600073ffffffffffffffffffffffffffffffffffffffff168173ffffffffffffffffffffffffffffffffffffffff16036200009157600080fd5b80600160006101000a81548173ffffffffffffffffffffffffffffffffffffffff021916908373ffffffffffffffffffffffffffffffffffffffff1602179055506000600460008060f81b7effffffffffffffffffffffffffffffffffffffffffffffffffffffffffffff1916815260200190815260200160002081905550600160046000600160f81b7effffffffffffffffffffffffffffffffffffffffffffffffffffffffffffff1916815260200190815260200160002081905550600160046000600260f81b7effffffffffffffffffffffffffffffffffffffffffffffffffffffffffffff1916815260200190815260200160002081905550600260046000600360f81b7effffffffffffffffffffffffffffffffffffffffffffffffffffffffffffff1916815260200190815260200160002081905550600160046000600460f81b7effffffffffffffffffffffffffffffffffffffffffffffffffffffffffffff1916815260200190815260200160002081905550600260046000600560f81b7effffffffffffffffffffffffffffffffffffffffffffffffffffffffffffff1916815260200190815260200160002081905550600260046000600660f81b7effffffffffffffffffffffffffffffffffffffffffffffffffffffffffffff1916815260200190815260200160002081905550600360046000600760f81b7effffffffffffffffffffffffffffffffffffffffffffffffffffffffffffff1916815260200190815260200160002081905550600160046000600860f81b7effffffffffffffffffffffffffffffffffffffffffffffffffffffffffffff1916815260200190815260200160002081905550600260046000600960f81b7effffffffffffffffffffffffffffffffffffffffffffffffffffffffffffff1916815260200190815260200160002081905550600260046000600a60f81b7effffffffffffffffffffffffffffffffffffffffffffffffffffffffffffff1916815260200190815260200160002081905550600360046000600b60f81b7effffffffffffffffffffffffffffffffffffffffffffffffffffffffffffff1916815260200190815260200160002081905550600260046000600c60f81b7effffffffffffffffffffffffffffffffffffffffffffffffffffffffffffff1916815260200190815260200160002081905550600360046000600d60f81b7effffffffffffffffffffffffffffffffffffffffffffffffffffffffffffff1916815260200190815260200160002081905550600360046000600e60f81b7effffffffffffffffffffffffffffffffffffffffffffffffffffffffffffff19168152602001908152602001600020819055506004806000600f60f81b7effffffffffffffffffffffffffffffffffffffffffffffffffffffffffffff191681526020019081526020016000208190555060058081905550600c60078190555060036008819055506014600681905550506200064e565b600033905090565b60008060009054906101000a900473ffffffffffffffffffffffffffffffffffffffff169050816000806101000a81548173ffffffffffffffffffffffffffffffffffffffff021916908373ffffffffffffffffffffffffffffffffffffffff1602179055508173ffffffffffffffffffffffffffffffffffffffff168173ffffffffffffffffffffffffffffffffffffffff167f8be0079c531659141344cd1fd0a4f28419497f9722a3daafe3b4186f6b6457e060405160405180910390a35050565b600080fd5b600073ffffffffffffffffffffffffffffffffffffffff82169050919050565b6000620005e482620005b7565b9050919050565b620005f681620005d7565b81146200060257600080fd5b50565b6000815190506200061681620005eb565b92915050565b600060208284031215620006355762000634620005b2565b5b6000620006458482850162000605565b91505092915050565b615fdf806200065e6000396000f3fe608060405234801561001057600080fd5b50600436106101e55760003560e01c80637c62efeb1161010f578063bc0bc6ba116100a2578063eeaf6c7911610071578063eeaf6c791461060c578063f2fde38b14610628578063f665a20614610644578063f796eb8514610674576101e5565b8063bc0bc6ba14610560578063c35dd69c14610590578063d305de65146105c0578063e910e859146105f0576101e5565b80638da5cb5b116100de5780638da5cb5b146104d157806390247808146104ef5780639f5a9a541461050d578063a88dc9561461052b576101e5565b80637c62efeb14610423578063843231a81461045357806387ceff09146104835780638d5802e2146104a1576101e5565b806334e5197b116101875780635f7154bf116101565780635f7154bf1461039d5780636ec6be9a146103cd578063715018a6146103fd578063758b1ce314610407576101e5565b806334e5197b146102ec578063365a86fc1461031c5780633c1ab00f1461033a578063409638401461036d576101e5565b8063228a726a116101c3578063228a726a146102525780632b25a38b146102825780632d72402c146102b2578063308feec3146102ce576101e5565b8063089d5b77146101ea5780631b448328146102065780631ca5ca4b14610236575b600080fd5b61020460048036038101906101ff9190614416565b6106a4565b005b610220600480360381019061021b91906144a1565b61072a565b60405161022d9190614503565b60405180910390f35b610250600480360381019061024b9190614416565b61076f565b005b61026c60048036038101906102679190614416565b6107f5565b6040516102799190614537565b60405180910390f35b61029c60048036038101906102979190614552565b610815565b6040516102a99190614503565b60405180910390f35b6102cc60048036038101906102c791906144a1565b61099c565b005b6102d661114f565b6040516102e39190614503565b60405180910390f35b610306600480360381019061030191906145be565b611159565b6040516103139190614503565b60405180910390f35b610324611171565b604051610331919061464a565b60405180910390f35b610354600480360381019061034f9190614416565b611197565b60405161036494939291906149d4565b60405180910390f35b610387600480360381019061038291906144a1565b611421565b6040516103949190614503565b60405180910390f35b6103b760048036038101906103b29190614416565b61167b565b6040516103c49190614503565b60405180910390f35b6103e760048036038101906103e29190614a35565b61169b565b6040516103f49190614a9c565b60405180910390f35b610405611779565b005b610421600480360381019061041c9190614416565b611801565b005b61043d60048036038101906104389190614abe565b611887565b60405161044a9190614503565b60405180910390f35b61046d60048036038101906104689190614b25565b612446565b60405161047a9190614503565b60405180910390f35b61048b612ab1565b6040516104989190614503565b60405180910390f35b6104bb60048036038101906104b69190614416565b612abb565b6040516104c89190614b74565b60405180910390f35b6104d9612bd7565b6040516104e69190614b74565b60405180910390f35b6104f7612c00565b6040516105049190614503565b60405180910390f35b610515612c0a565b6040516105229190614503565b60405180910390f35b61054560048036038101906105409190614416565b612c14565b60405161055796959493929190614b8f565b60405180910390f35b61057a60048036038101906105759190614416565b612c70565b6040516105879190614503565b60405180910390f35b6105aa60048036038101906105a59190614552565b612df6565b6040516105b79190614c0b565b60405180910390f35b6105da60048036038101906105d59190614c26565b612ec0565b6040516105e79190614503565b60405180910390f35b61060a60048036038101906106059190614dbf565b61305e565b005b61062660048036038101906106219190614416565b613772565b005b610642600480360381019061063d9190614e68565b6137f8565b005b61065e60048036038101906106599190614416565b6138ef565b60405161066b9190614a9c565b60405180910390f35b61068e600480360381019061068991906144a1565b61395d565b60405161069b9190614503565b60405180910390f35b6106ac613ae0565b73ffffffffffffffffffffffffffffffffffffffff166106ca612bd7565b73ffffffffffffffffffffffffffffffffffffffff1614610720576040517f08c379a000000000000000000000000000000000000000000000000000000000815260040161071790614ef2565b60405180910390fd5b8060068190555050565b6000806107378585610815565b905060006107458683612df6565b905080156107615761075886868661395d565b92505050610768565b6000925050505b9392505050565b610777613ae0565b73ffffffffffffffffffffffffffffffffffffffff16610795612bd7565b73ffffffffffffffffffffffffffffffffffffffff16146107eb576040517f08c379a00000000000000000000000000000000000000000000000000000000081526004016107e290614ef2565b60405180910390fd5b8060058190555050565b600060026000838152602001908152602001600020600201549050919050565b6000806002600085815260200190815260200160002060030160008154811061084157610840614f12565b5b906000526020600020015443101580156108b2575060026000858152602001908152602001600020600301600160026000878152602001908152602001600020600301805490506108929190614f70565b815481106108a3576108a2614f12565b5b90600052602060002001544311155b6108f1576040517f08c379a00000000000000000000000000000000000000000000000000000000081526004016108e890614ff0565b60405180910390fd5b600190505b6001600260008681526020019081526020016000206003018054905061091c9190614f70565b8110156109855760026000858152602001908152602001600020600301818154811061094b5761094a614f12565b5b90600052602060002001548310156109725760018161096a9190614f70565b915050610996565b808061097d90615010565b9150506108f6565b6001816109929190614f70565b9150505b92915050565b8073ffffffffffffffffffffffffffffffffffffffff1663d202158d336040516020016109c991906150a0565b6040516020818303038152906040528051906020012060026040518363ffffffff1660e01b81526004016109fe9291906150f6565b602060405180830381865afa158015610a1b573d6000803e3d6000fd5b505050506040513d601f19601f82011682018060405250810190610a3f919061514b565b610a7e576040517f08c379a0000000000000000000000000000000000000000000000000000000008152600401610a75906151ea565b60405180910390fd5b60011515600160009054906101000a900473ffffffffffffffffffffffffffffffffffffffff1673ffffffffffffffffffffffffffffffffffffffff166304433bbc6040518163ffffffff1660e01b8152600401610adb90615256565b602060405180830381865afa158015610af8573d6000803e3d6000fd5b505050506040513d601f19601f82011682018060405250810190610b1c919061528b565b73ffffffffffffffffffffffffffffffffffffffff16634f558e79856040518263ffffffff1660e01b8152600401610b549190614503565b602060405180830381865afa158015610b71573d6000803e3d6000fd5b505050506040513d601f19601f82011682018060405250810190610b95919061514b565b151514610bd7576040517f08c379a0000000000000000000000000000000000000000000000000000000008152600401610bce90615304565b60405180910390fd5b6000610be38484612df6565b90506000151581151514610bf657600080fd5b6000600160009054906101000a900473ffffffffffffffffffffffffffffffffffffffff1673ffffffffffffffffffffffffffffffffffffffff166304433bbc6040518163ffffffff1660e01b8152600401610c5190615370565b602060405180830381865afa158015610c6e573d6000803e3d6000fd5b505050506040513d601f19601f82011682018060405250810190610c92919061528b565b905060008173ffffffffffffffffffffffffffffffffffffffff1663b56e4129856040518263ffffffff1660e01b8152600401610ccf9190614b74565b602060405180830381865afa158015610cec573d6000803e3d6000fd5b505050506040513d601f19601f82011682018060405250810190610d1091906153a5565b905060005b600260008881526020019081526020016000206009018681548110610d3d57610d3c614f12565b5b90600052602060002001548110156111465781600260008981526020019081526020016000206006018781548110610d7857610d77614f12565b5b906000526020600020018281548110610d9457610d93614f12565b5b906000526020600020015403611133576000600260008981526020019081526020016000206008018781548110610dce57610dcd614f12565b5b906000526020600020018281548110610dea57610de9614f12565b5b9060005260206000200154905060008111610e0457600080fd5b6000600260008a81526020019081526020016000206008018881548110610e2e57610e2d614f12565b5b906000526020600020018381548110610e4a57610e49614f12565b5b906000526020600020018190555080600260008a8152602001908152602001600020600a016000828254610e7e9190614f70565b925050819055508373ffffffffffffffffffffffffffffffffffffffff1663bd3cd52587838773ffffffffffffffffffffffffffffffffffffffff16637a7664608b6040518263ffffffff1660e01b8152600401610edc9190614b74565b602060405180830381865afa158015610ef9573d6000803e3d6000fd5b505050506040513d601f19601f82011682018060405250810190610f1d91906153e7565b610f279190615414565b6040518363ffffffff1660e01b8152600401610f4492919061546a565b600060405180830381600087803b158015610f5e57600080fd5b505af1158015610f72573d6000803e3d6000fd5b505050506000600160009054906101000a900473ffffffffffffffffffffffffffffffffffffffff1673ffffffffffffffffffffffffffffffffffffffff166304433bbc6040518163ffffffff1660e01b8152600401610fd1906154df565b602060405180830381865afa158015610fee573d6000803e3d6000fd5b505050506040513d601f19601f82011682018060405250810190611012919061528b565b90508073ffffffffffffffffffffffffffffffffffffffff1663a9059cbb600160009054906101000a900473ffffffffffffffffffffffffffffffffffffffff1673ffffffffffffffffffffffffffffffffffffffff166304433bbc6040518163ffffffff1660e01b815260040161108990615370565b602060405180830381865afa1580156110a6573d6000803e3d6000fd5b505050506040513d601f19601f820116820180604052508101906110ca919061528b565b846040518363ffffffff1660e01b81526004016110e892919061546a565b6020604051808303816000875af1158015611107573d6000803e3d6000fd5b505050506040513d601f19601f8201168201806040525081019061112b919061514b565b505050611146565b808061113e90615010565b915050610d15565b50505050505050565b6000600854905090565b60036020528060005260406000206000915090505481565b600160009054906101000a900473ffffffffffffffffffffffffffffffffffffffff1681565b6060806060806002600086815260200190815260200160002060060160026000878152602001908152602001600020600701600260008881526020019081526020016000206008016002600089815260200190815260200160002060090183805480602002602001604051908101604052809291908181526020016000905b828210156112885783829060005260206000200180548060200260200160405190810160405280929190818152602001828054801561127457602002820191906000526020600020905b815481526020019060010190808311611260575b505050505081526020019060010190611216565b50505050935082805480602002602001604051908101604052809291908181526020016000905b828210156113215783829060005260206000200180548060200260200160405190810160405280929190818152602001828054801561130d57602002820191906000526020600020905b8154815260200190600101908083116112f9575b5050505050815260200190600101906112af565b50505050925081805480602002602001604051908101604052809291908181526020016000905b828210156113ba578382906000526020600020018054806020026020016040519081016040528092919081815260200182805480156113a657602002820191906000526020600020905b815481526020019060010190808311611392575b505050505081526020019060010190611348565b5050505091508080548060200260200160405190810160405280929190818152602001828054801561140b57602002820191906000526020600020905b8154815260200190600101908083116113f7575b5050505050905093509350935093509193509193565b600080600160009054906101000a900473ffffffffffffffffffffffffffffffffffffffff1673ffffffffffffffffffffffffffffffffffffffff166304433bbc6040518163ffffffff1660e01b815260040161147d90615370565b602060405180830381865afa15801561149a573d6000803e3d6000fd5b505050506040513d601f19601f820116820180604052508101906114be919061528b565b905060008173ffffffffffffffffffffffffffffffffffffffff1663b56e4129856040518263ffffffff1660e01b81526004016114fb9190614b74565b602060405180830381865afa158015611518573d6000803e3d6000fd5b505050506040513d601f19601f8201168201806040525081019061153c91906153a5565b905060006115b8826002896040516020016115579190615520565b60405160208183030381529060405260405161157391906155b5565b602060405180830381855afa158015611590573d6000803e3d6000fd5b5050506040513d601f19601f820116820180604052508101906115b391906153a5565b612ec0565b905060005b6002600089815260200190815260200160002060090187815481106115e5576115e4614f12565b5b906000526020600020015481101561166c5781600260008a815260200190815260200160002060070188815481106116205761161f614f12565b5b90600052602060002001828154811061163c5761163b614f12565b5b906000526020600020015411156116595780945050505050611674565b808061166490615010565b9150506115bd565b809450505050505b9392505050565b600060026000838152602001908152602001600020600001549050919050565b606060006001856116ac9190615414565b67ffffffffffffffff8111156116c5576116c4614c7c565b5b6040519080825280602002602001820160405280156116f35781602001602082028036833780820191505090505b50905060005b6001866117069190615414565b81101561176c578585858361171b91906155cc565b6117259190615655565b61172f9190615655565b8761173a9190615414565b82828151811061174d5761174c614f12565b5b602002602001018181525050808061176490615010565b9150506116f9565b5080915050949350505050565b611781613ae0565b73ffffffffffffffffffffffffffffffffffffffff1661179f612bd7565b73ffffffffffffffffffffffffffffffffffffffff16146117f5576040517f08c379a00000000000000000000000000000000000000000000000000000000081526004016117ec90614ef2565b60405180910390fd5b6117ff6000613ae8565b565b611809613ae0565b73ffffffffffffffffffffffffffffffffffffffff16611827612bd7565b73ffffffffffffffffffffffffffffffffffffffff161461187d576040517f08c379a000000000000000000000000000000000000000000000000000000000815260040161187490614ef2565b60405180910390fd5b8060078190555050565b60008060001b85036118ce576040517f08c379a00000000000000000000000000000000000000000000000000000000081526004016118c5906156d2565b60405180910390fd5b6000600160009054906101000a900473ffffffffffffffffffffffffffffffffffffffff1673ffffffffffffffffffffffffffffffffffffffff166304433bbc6040518163ffffffff1660e01b81526004016119299061573e565b602060405180830381865afa158015611946573d6000803e3d6000fd5b505050506040513d601f19601f8201168201806040525081019061196a919061528b565b73ffffffffffffffffffffffffffffffffffffffff1663a7943efc876040518263ffffffff1660e01b81526004016119a29190614537565b602060405180830381865afa1580156119bf573d6000803e3d6000fd5b505050506040513d601f19601f820116820180604052508101906119e391906153e7565b14611a23576040517f08c379a0000000000000000000000000000000000000000000000000000000008152600401611a1a906157aa565b60405180910390fd5b6000600160009054906101000a900473ffffffffffffffffffffffffffffffffffffffff1673ffffffffffffffffffffffffffffffffffffffff166304433bbc6040518163ffffffff1660e01b8152600401611a7e906154df565b602060405180830381865afa158015611a9b573d6000803e3d6000fd5b505050506040513d601f19601f82011682018060405250810190611abf919061528b565b9050848173ffffffffffffffffffffffffffffffffffffffff1663dd62ed3e33306040518363ffffffff1660e01b8152600401611afd9291906157ca565b602060405180830381865afa158015611b1a573d6000803e3d6000fd5b505050506040513d601f19601f82011682018060405250810190611b3e91906153e7565b1015611b7f576040517f08c379a0000000000000000000000000000000000000000000000000000000008152600401611b7690615865565b60405180910390fd5b848173ffffffffffffffffffffffffffffffffffffffff166370a08231336040518263ffffffff1660e01b8152600401611bb99190614b74565b602060405180830381865afa158015611bd6573d6000803e3d6000fd5b505050506040513d601f19601f82011682018060405250810190611bfa91906153e7565b1015611c3b576040517f08c379a0000000000000000000000000000000000000000000000000000000008152600401611c32906158f7565b60405180910390fd5b6000600160009054906101000a900473ffffffffffffffffffffffffffffffffffffffff1673ffffffffffffffffffffffffffffffffffffffff166304433bbc6040518163ffffffff1660e01b8152600401611c9690615256565b602060405180830381865afa158015611cb3573d6000803e3d6000fd5b505050506040513d601f19601f82011682018060405250810190611cd7919061528b565b73ffffffffffffffffffffffffffffffffffffffff1663a61788ba336040518263ffffffff1660e01b8152600401611d0f9190614b74565b6020604051808303816000875af1158015611d2e573d6000803e3d6000fd5b505050506040513d601f19601f82011682018060405250810190611d5291906153e7565b90506000600260008381526020019081526020016000206000015414611dad576040517f08c379a0000000000000000000000000000000000000000000000000000000008152600401611da490615963565b60405180910390fd5b8173ffffffffffffffffffffffffffffffffffffffff166323b872dd3330896040518463ffffffff1660e01b8152600401611dea93929190615983565b6020604051808303816000875af1158015611e09573d6000803e3d6000fd5b505050506040513d601f19601f82011682018060405250810190611e2d919061514b565b508560026000838152602001908152602001600020600a016000828254611e549190615414565b92505081905550600160009054906101000a900473ffffffffffffffffffffffffffffffffffffffff1673ffffffffffffffffffffffffffffffffffffffff166304433bbc6040518163ffffffff1660e01b8152600401611eb49061573e565b602060405180830381865afa158015611ed1573d6000803e3d6000fd5b505050506040513d601f19601f82011682018060405250810190611ef5919061528b565b73ffffffffffffffffffffffffffffffffffffffff1663b3138cb8883360016040518463ffffffff1660e01b8152600401611f32939291906159f5565b600060405180830381600087803b158015611f4c57600080fd5b505af1158015611f60573d6000803e3d6000fd5b50505050866002600083815260200190815260200160002060020181905550426002600083815260200190815260200160002060000181905550846002600083815260200190815260200160002060040181905550611fc5436005546007548761169b565b600260008381526020019081526020016000206003019080519060200190611fee9291906141ae565b50600854600554876120009190615655565b61200a9190615655565b6002600083815260200190815260200160002060050181905550600567ffffffffffffffff81111561203f5761203e614c7c565b5b60405190808252806020026020018201604052801561207257816020015b606081526020019060019003908161205d5790505b5060026000838152602001908152602001600020600601908051906020019061209c9291906141fb565b50600567ffffffffffffffff8111156120b8576120b7614c7c565b5b6040519080825280602002602001820160405280156120eb57816020015b60608152602001906001900390816120d65790505b5060026000838152602001908152602001600020600701908051906020019061211592919061425b565b50600567ffffffffffffffff81111561213157612130614c7c565b5b60405190808252806020026020018201604052801561216457816020015b606081526020019060019003908161214f5790505b5060026000838152602001908152602001600020600801908051906020019061218e92919061425b565b50600567ffffffffffffffff8111156121aa576121a9614c7c565b5b6040519080825280602002602001820160405280156121d85781602001602082028036833780820191505090505b506002600083815260200190815260200160002060090190805190602001906122029291906141ae565b5060005b600581101561240a57600367ffffffffffffffff81111561222a57612229614c7c565b5b6040519080825280602002602001820160405280156122585781602001602082028036833780820191505090505b5060026000848152602001908152602001600020600601828154811061228157612280614f12565b5b90600052602060002001908051906020019061229e9291906142bb565b50600367ffffffffffffffff8111156122ba576122b9614c7c565b5b6040519080825280602002602001820160405280156122e85781602001602082028036833780820191505090505b5060026000848152602001908152602001600020600701828154811061231157612310614f12565b5b90600052602060002001908051906020019061232e9291906141ae565b50600367ffffffffffffffff81111561234a57612349614c7c565b5b6040519080825280602002602001820160405280156123785781602001602082028036833780820191505090505b506002600084815260200190815260200160002060080182815481106123a1576123a0614f12565b5b9060005260206000200190805190602001906123be9291906141ae565b5060006002600084815260200190815260200160002060090182815481106123e9576123e8614f12565b5b9060005260206000200181905550808061240290615010565b915050612206565b5086817f5863c932b4caa63f7e8856a49b4d0a438e7c26163d5553ecbcd67dee29a8907160405160405180910390a38092505050949350505050565b600080830361248a576040517f08c379a000000000000000000000000000000000000000000000000000000000815260040161248190615a78565b60405180910390fd5b6000801b82036124cf576040517f08c379a00000000000000000000000000000000000000000000000000000000081526004016124c690615b0a565b60405180910390fd5b6000600260008581526020019081526020016000206000015403612528576040517f08c379a000000000000000000000000000000000000000000000000000000000815260040161251f90615b76565b60405180910390fd5b60011515600160009054906101000a900473ffffffffffffffffffffffffffffffffffffffff1673ffffffffffffffffffffffffffffffffffffffff166304433bbc6040518163ffffffff1660e01b815260040161258590615256565b602060405180830381865afa1580156125a2573d6000803e3d6000fd5b505050506040513d601f19601f820116820180604052508101906125c6919061528b565b73ffffffffffffffffffffffffffffffffffffffff16634f558e79856040518263ffffffff1660e01b81526004016125fe9190614503565b602060405180830381865afa15801561261b573d6000803e3d6000fd5b505050506040513d601f19601f8201168201806040525081019061263f919061514b565b151514612681576040517f08c379a000000000000000000000000000000000000000000000000000000000815260040161267890615be2565b60405180910390fd5b6000600160009054906101000a900473ffffffffffffffffffffffffffffffffffffffff1673ffffffffffffffffffffffffffffffffffffffff166304433bbc6040518163ffffffff1660e01b81526004016126dc9061573e565b602060405180830381865afa1580156126f9573d6000803e3d6000fd5b505050506040513d601f19601f8201168201806040525081019061271d919061528b565b73ffffffffffffffffffffffffffffffffffffffff1663a7943efc846040518263ffffffff1660e01b81526004016127559190614537565b602060405180830381865afa158015612772573d6000803e3d6000fd5b505050506040513d601f19601f8201168201806040525081019061279691906153e7565b146127d6576040517f08c379a00000000000000000000000000000000000000000000000000000000081526004016127cd906157aa565b60405180910390fd5b3373ffffffffffffffffffffffffffffffffffffffff16600160009054906101000a900473ffffffffffffffffffffffffffffffffffffffff1673ffffffffffffffffffffffffffffffffffffffff166304433bbc6040518163ffffffff1660e01b815260040161284690615256565b602060405180830381865afa158015612863573d6000803e3d6000fd5b505050506040513d601f19601f82011682018060405250810190612887919061528b565b73ffffffffffffffffffffffffffffffffffffffff16636352211e856040518263ffffffff1660e01b81526004016128bf9190614503565b602060405180830381865afa1580156128dc573d6000803e3d6000fd5b505050506040513d601f19601f82011682018060405250810190612900919061528b565b73ffffffffffffffffffffffffffffffffffffffff1614612956576040517f08c379a000000000000000000000000000000000000000000000000000000000815260040161294d90615c4e565b60405180910390fd5b600160009054906101000a900473ffffffffffffffffffffffffffffffffffffffff1673ffffffffffffffffffffffffffffffffffffffff166304433bbc6040518163ffffffff1660e01b81526004016129af9061573e565b602060405180830381865afa1580156129cc573d6000803e3d6000fd5b505050506040513d601f19601f820116820180604052508101906129f0919061528b565b73ffffffffffffffffffffffffffffffffffffffff1663b3138cb8833360016040518463ffffffff1660e01b8152600401612a2d939291906159f5565b600060405180830381600087803b158015612a4757600080fd5b505af1158015612a5b573d6000803e3d6000fd5b5050505081600260008581526020019081526020016000206002018190555081837fd8802cf5c11ee22bbcf303218874618686a09bcd94bbb441916d708f3e8b16e360405160405180910390a382905092915050565b6000600754905090565b6000600160009054906101000a900473ffffffffffffffffffffffffffffffffffffffff1673ffffffffffffffffffffffffffffffffffffffff166304433bbc6040518163ffffffff1660e01b8152600401612b1690615256565b602060405180830381865afa158015612b33573d6000803e3d6000fd5b505050506040513d601f19601f82011682018060405250810190612b57919061528b565b73ffffffffffffffffffffffffffffffffffffffff16636352211e836040518263ffffffff1660e01b8152600401612b8f9190614503565b602060405180830381865afa158015612bac573d6000803e3d6000fd5b505050506040513d601f19601f82011682018060405250810190612bd0919061528b565b9050919050565b60008060009054906101000a900473ffffffffffffffffffffffffffffffffffffffff16905090565b6000600554905090565b6000600654905090565b60026020528060005260406000206000915090508060000154908060010160009054906101000a900473ffffffffffffffffffffffffffffffffffffffff169080600201549080600401549080600501549080600a0154905086565b60008060026000848152602001908152602001600020600301600081548110612c9c57612c9b614f12565b5b90600052602060002001544310158015612d0d57506002600084815260200190815260200160002060030160016002600086815260200190815260200160002060030180549050612ced9190614f70565b81548110612cfe57612cfd614f12565b5b90600052602060002001544311155b612d4c576040517f08c379a0000000000000000000000000000000000000000000000000000000008152600401612d4390614ff0565b60405180910390fd5b600190505b60016002600085815260200190815260200160002060030180549050612d779190614f70565b811015612de057600260008481526020019081526020016000206003018181548110612da657612da5614f12565b5b9060005260206000200154431015612dcd57600181612dc59190614f70565b915050612df1565b8080612dd890615010565b915050612d51565b600181612ded9190614f70565b9150505b919050565b60008160016002600086815260200190815260200160002060030180549050612e1f9190614f70565b1115612eb55743600260008581526020019081526020016000206003018381548110612e4e57612e4d614f12565b5b906000526020600020015411158015612ea6575043600654600260008681526020019081526020016000206003018481548110612e8e57612e8d614f12565b5b9060005260206000200154612ea39190615414565b10155b15612eb45760019050612eba565b5b600090505b92915050565b60008082841890506000805b602060ff1681101561305257600460006004858460208110612ef157612ef0614f12565b5b1a60f81b7effffffffffffffffffffffffffffffffffffffffffffffffffffffffffffff1916901c7effffffffffffffffffffffffffffffffffffffffffffffffffffffffffffff19167effffffffffffffffffffffffffffffffffffffffffffffffffffffffffffff191681526020019081526020016000205482612f779190615414565b915060046000600480868560208110612f9357612f92614f12565b5b1a60f81b7effffffffffffffffffffffffffffffffffffffffffffffffffffffffffffff1916901b7effffffffffffffffffffffffffffffffffffffffffffffffffffffffffffff1916901c7effffffffffffffffffffffffffffffffffffffffffffffffffffffffffffff19167effffffffffffffffffffffffffffffffffffffffffffffffffffffffffffff19168152602001908152602001600020548261303d9190615414565b9150808061304a90615010565b915050612ecc565b50809250505092915050565b60011515600160009054906101000a900473ffffffffffffffffffffffffffffffffffffffff1673ffffffffffffffffffffffffffffffffffffffff166304433bbc6040518163ffffffff1660e01b81526004016130bb90615256565b602060405180830381865afa1580156130d8573d6000803e3d6000fd5b505050506040513d601f19601f820116820180604052508101906130fc919061528b565b73ffffffffffffffffffffffffffffffffffffffff16634f558e79886040518263ffffffff1660e01b81526004016131349190614503565b602060405180830381865afa158015613151573d6000803e3d6000fd5b505050506040513d601f19601f82011682018060405250810190613175919061514b565b1515146131b7576040517f08c379a00000000000000000000000000000000000000000000000000000000081526004016131ae90615304565b60405180910390fd5b6002600087815260200190815260200160002060050154821115613210576040517f08c379a000000000000000000000000000000000000000000000000000000000815260040161320790615cba565b60405180910390fd5b60011515600160009054906101000a900473ffffffffffffffffffffffffffffffffffffffff1673ffffffffffffffffffffffffffffffffffffffff166304433bbc6040518163ffffffff1660e01b815260040161326d90615256565b602060405180830381865afa15801561328a573d6000803e3d6000fd5b505050506040513d601f19601f820116820180604052508101906132ae919061528b565b73ffffffffffffffffffffffffffffffffffffffff16634f558e79886040518263ffffffff1660e01b81526004016132e69190614503565b602060405180830381865afa158015613303573d6000803e3d6000fd5b505050506040513d601f19601f82011682018060405250810190613327919061514b565b151514613369576040517f08c379a000000000000000000000000000000000000000000000000000000000815260040161336090615304565b60405180910390fd5b8073ffffffffffffffffffffffffffffffffffffffff1663d202158d3360405160200161339691906150a0565b6040516020818303038152906040528051906020012060026040518363ffffffff1660e01b81526004016133cb9291906150f6565b602060405180830381865afa1580156133e8573d6000803e3d6000fd5b505050506040513d601f19601f8201168201806040525081019061340c919061514b565b61344b576040517f08c379a0000000000000000000000000000000000000000000000000000000008152600401613442906151ea565b60405180910390fd5b60006134578787610815565b905060006134658883612df6565b90508061347157600080fd5b6000600160009054906101000a900473ffffffffffffffffffffffffffffffffffffffff1673ffffffffffffffffffffffffffffffffffffffff166304433bbc6040518163ffffffff1660e01b81526004016134cc90615370565b602060405180830381865afa1580156134e9573d6000803e3d6000fd5b505050506040513d601f19601f8201168201806040525081019061350d919061528b565b905060008173ffffffffffffffffffffffffffffffffffffffff1663b56e4129866040518263ffffffff1660e01b815260040161354a9190614b74565b602060405180830381865afa158015613567573d6000803e3d6000fd5b505050506040513d601f19601f8201168201806040525081019061358b91906153a5565b905060005b600260008c815260200190815260200160002060090185815481106135b8576135b7614f12565b5b906000526020600020015481101561366d57600260008c815260200190815260200160002060060185815481106135f2576135f1614f12565b5b90600052602060002001818154811061360e5761360d614f12565b5b9060005260206000200154820361365a576040517f08c379a000000000000000000000000000000000000000000000000000000000815260040161365190615d4c565b60405180910390fd5b808061366590615010565b915050613590565b50600061367b8b8b8861395d565b9050600061368a8c8789611421565b9050600381106136cf576040517f08c379a00000000000000000000000000000000000000000000000000000000081526004016136c690615db8565b60405180910390fd5b6137188a600260008f8152602001908152602001600020600201548b856040516020016136fd929190615df9565b60405160208183030381529060405280519060200120613bac565b613757576040517f08c379a000000000000000000000000000000000000000000000000000000000815260040161374e90615e71565b60405180910390fd5b6137648c87838b8b613bc3565b505050505050505050505050565b61377a613ae0565b73ffffffffffffffffffffffffffffffffffffffff16613798612bd7565b73ffffffffffffffffffffffffffffffffffffffff16146137ee576040517f08c379a00000000000000000000000000000000000000000000000000000000081526004016137e590614ef2565b60405180910390fd5b8060088190555050565b613800613ae0565b73ffffffffffffffffffffffffffffffffffffffff1661381e612bd7565b73ffffffffffffffffffffffffffffffffffffffff1614613874576040517f08c379a000000000000000000000000000000000000000000000000000000000815260040161386b90614ef2565b60405180910390fd5b600073ffffffffffffffffffffffffffffffffffffffff168173ffffffffffffffffffffffffffffffffffffffff16036138e3576040517f08c379a00000000000000000000000000000000000000000000000000000000081526004016138da90615f03565b60405180910390fd5b6138ec81613ae8565b50565b60606002600083815260200190815260200160002060030180548060200260200160405190810160405280929190818152602001828054801561395157602002820191906000526020600020905b81548152602001906001019080831161393d575b50505050509050919050565b60008173ffffffffffffffffffffffffffffffffffffffff1663d202158d3360405160200161398c91906150a0565b6040516020818303038152906040528051906020012060026040518363ffffffff1660e01b81526004016139c19291906150f6565b602060405180830381865afa1580156139de573d6000803e3d6000fd5b505050506040513d601f19601f82011682018060405250810190613a02919061514b565b613a41576040517f08c379a0000000000000000000000000000000000000000000000000000000008152600401613a38906151ea565b60405180910390fd5b60026000858152602001908152602001600020600401546002844084604051602001613a6e929190615f23565b604051602081830303815290604052604051613a8a91906155b5565b602060405180830381855afa158015613aa7573d6000803e3d6000fd5b5050506040513d601f19601f82011682018060405250810190613aca91906153a5565b60001c613ad79190615f4f565b90509392505050565b600033905090565b60008060009054906101000a900473ffffffffffffffffffffffffffffffffffffffff169050816000806101000a81548173ffffffffffffffffffffffffffffffffffffffff021916908373ffffffffffffffffffffffffffffffffffffffff1602179055508173ffffffffffffffffffffffffffffffffffffffff168173ffffffffffffffffffffffffffffffffffffffff167f8be0079c531659141344cd1fd0a4f28419497f9722a3daafe3b4186f6b6457e060405160405180910390a35050565b600082613bb98584614122565b1490509392505050565b6000600260008781526020019081526020016000206009018581548110613bed57613bec614f12565b5b9060005260206000200154905060008190505b600185613c0d9190615414565b8110613e37576003810315613e2457600260008881526020019081526020016000206006018681548110613c4457613c43614f12565b5b90600052602060002001600182613c5b9190614f70565b81548110613c6c57613c6b614f12565b5b9060005260206000200154600260008981526020019081526020016000206006018781548110613c9f57613c9e614f12565b5b906000526020600020018281548110613cbb57613cba614f12565b5b9060005260206000200181905550600260008881526020019081526020016000206007018681548110613cf157613cf0614f12565b5b90600052602060002001600182613d089190614f70565b81548110613d1957613d18614f12565b5b9060005260206000200154600260008981526020019081526020016000206007018781548110613d4c57613d4b614f12565b5b906000526020600020018281548110613d6857613d67614f12565b5b9060005260206000200181905550600260008881526020019081526020016000206008018681548110613d9e57613d9d614f12565b5b90600052602060002001600182613db59190614f70565b81548110613dc657613dc5614f12565b5b9060005260206000200154600260008981526020019081526020016000206008018781548110613df957613df8614f12565b5b906000526020600020018281548110613e1557613e14614f12565b5b90600052602060002001819055505b8080613e2f90615f80565b915050613c00565b506000600160009054906101000a900473ffffffffffffffffffffffffffffffffffffffff1673ffffffffffffffffffffffffffffffffffffffff166304433bbc6040518163ffffffff1660e01b8152600401613e9390615370565b602060405180830381865afa158015613eb0573d6000803e3d6000fd5b505050506040513d601f19601f82011682018060405250810190613ed4919061528b565b905060008173ffffffffffffffffffffffffffffffffffffffff1663b56e4129856040518263ffffffff1660e01b8152600401613f119190614b74565b602060405180830381865afa158015613f2e573d6000803e3d6000fd5b505050506040513d601f19601f82011682018060405250810190613f5291906153a5565b905080600260008a81526020019081526020016000206006018881548110613f7d57613f7c614f12565b5b906000526020600020018781548110613f9957613f98614f12565b5b906000526020600020018190555061401f8160028a604051602001613fbe9190615520565b604051602081830303815290604052604051613fda91906155b5565b602060405180830381855afa158015613ff7573d6000803e3d6000fd5b5050506040513d601f19601f8201168201806040525081019061401a91906153a5565b612ec0565b600260008a8152602001908152602001600020600701888154811061404757614046614f12565b5b90600052602060002001878154811061406357614062614f12565b5b906000526020600020018190555084600260008a8152602001908152602001600020600801888154811061409a57614099614f12565b5b9060005260206000200187815481106140b6576140b5614f12565b5b90600052602060002001819055506003831015614118576001600260008a815260200190815260200160002060090188815481106140f7576140f6614f12565b5b9060005260206000200160008282546141109190615414565b925050819055505b5050505050505050565b60008082905060005b845181101561418c57600085828151811061414957614148614f12565b5b6020026020010151905080831161416b576141648382614197565b9250614178565b6141758184614197565b92505b50808061418490615010565b91505061412b565b508091505092915050565b600082600052816020526040600020905092915050565b8280548282559060005260206000209081019282156141ea579160200282015b828111156141e95782518255916020019190600101906141ce565b5b5090506141f79190614308565b5090565b82805482825590600052602060002090810192821561424a579160200282015b828111156142495782518290805190602001906142399291906142bb565b509160200191906001019061421b565b5b5090506142579190614325565b5090565b8280548282559060005260206000209081019282156142aa579160200282015b828111156142a95782518290805190602001906142999291906141ae565b509160200191906001019061427b565b5b5090506142b79190614349565b5090565b8280548282559060005260206000209081019282156142f7579160200282015b828111156142f65782518255916020019190600101906142db565b5b509050614304919061436d565b5090565b5b80821115614321576000816000905550600101614309565b5090565b5b80821115614345576000818161433c919061438a565b50600101614326565b5090565b5b80821115614369576000818161436091906143ab565b5060010161434a565b5090565b5b8082111561438657600081600090555060010161436e565b5090565b50805460008255906000526020600020908101906143a8919061436d565b50565b50805460008255906000526020600020908101906143c99190614308565b50565b6000604051905090565b600080fd5b600080fd5b6000819050919050565b6143f3816143e0565b81146143fe57600080fd5b50565b600081359050614410816143ea565b92915050565b60006020828403121561442c5761442b6143d6565b5b600061443a84828501614401565b91505092915050565b600073ffffffffffffffffffffffffffffffffffffffff82169050919050565b600061446e82614443565b9050919050565b61447e81614463565b811461448957600080fd5b50565b60008135905061449b81614475565b92915050565b6000806000606084860312156144ba576144b96143d6565b5b60006144c886828701614401565b93505060206144d986828701614401565b92505060406144ea8682870161448c565b9150509250925092565b6144fd816143e0565b82525050565b600060208201905061451860008301846144f4565b92915050565b6000819050919050565b6145318161451e565b82525050565b600060208201905061454c6000830184614528565b92915050565b60008060408385031215614569576145686143d6565b5b600061457785828601614401565b925050602061458885828601614401565b9150509250929050565b61459b8161451e565b81146145a657600080fd5b50565b6000813590506145b881614592565b92915050565b6000602082840312156145d4576145d36143d6565b5b60006145e2848285016145a9565b91505092915050565b6000819050919050565b600061461061460b61460684614443565b6145eb565b614443565b9050919050565b6000614622826145f5565b9050919050565b600061463482614617565b9050919050565b61464481614629565b82525050565b600060208201905061465f600083018461463b565b92915050565b600081519050919050565b600082825260208201905092915050565b6000819050602082019050919050565b600081519050919050565b600082825260208201905092915050565b6000819050602082019050919050565b6146c68161451e565b82525050565b60006146d883836146bd565b60208301905092915050565b6000602082019050919050565b60006146fc82614691565b614706818561469c565b9350614711836146ad565b8060005b8381101561474257815161472988826146cc565b9750614734836146e4565b925050600181019050614715565b5085935050505092915050565b600061475b83836146f1565b905092915050565b6000602082019050919050565b600061477b82614665565b6147858185614670565b93508360208202850161479785614681565b8060005b858110156147d357848403895281516147b4858261474f565b94506147bf83614763565b925060208a0199505060018101905061479b565b50829750879550505050505092915050565b600081519050919050565b600082825260208201905092915050565b6000819050602082019050919050565b600081519050919050565b600082825260208201905092915050565b6000819050602082019050919050565b614846816143e0565b82525050565b6000614858838361483d565b60208301905092915050565b6000602082019050919050565b600061487c82614811565b614886818561481c565b93506148918361482d565b8060005b838110156148c25781516148a9888261484c565b97506148b483614864565b925050600181019050614895565b5085935050505092915050565b60006148db8383614871565b905092915050565b6000602082019050919050565b60006148fb826147e5565b61490581856147f0565b93508360208202850161491785614801565b8060005b85811015614953578484038952815161493485826148cf565b945061493f836148e3565b925060208a0199505060018101905061491b565b50829750879550505050505092915050565b600082825260208201905092915050565b600061498182614811565b61498b8185614965565b93506149968361482d565b8060005b838110156149c75781516149ae888261484c565b97506149b983614864565b92505060018101905061499a565b5085935050505092915050565b600060808201905081810360008301526149ee8187614770565b90508181036020830152614a0281866148f0565b90508181036040830152614a1681856148f0565b90508181036060830152614a2a8184614976565b905095945050505050565b60008060008060808587031215614a4f57614a4e6143d6565b5b6000614a5d87828801614401565b9450506020614a6e87828801614401565b9350506040614a7f87828801614401565b9250506060614a9087828801614401565b91505092959194509250565b60006020820190508181036000830152614ab68184614976565b905092915050565b60008060008060808587031215614ad857614ad76143d6565b5b6000614ae6878288016145a9565b9450506020614af787828801614401565b9350506040614b0887828801614401565b9250506060614b1987828801614401565b91505092959194509250565b60008060408385031215614b3c57614b3b6143d6565b5b6000614b4a85828601614401565b9250506020614b5b858286016145a9565b9150509250929050565b614b6e81614463565b82525050565b6000602082019050614b896000830184614b65565b92915050565b600060c082019050614ba460008301896144f4565b614bb16020830188614b65565b614bbe6040830187614528565b614bcb60608301866144f4565b614bd860808301856144f4565b614be560a08301846144f4565b979650505050505050565b60008115159050919050565b614c0581614bf0565b82525050565b6000602082019050614c206000830184614bfc565b92915050565b60008060408385031215614c3d57614c3c6143d6565b5b6000614c4b858286016145a9565b9250506020614c5c858286016145a9565b9150509250929050565b600080fd5b6000601f19601f8301169050919050565b7f4e487b7100000000000000000000000000000000000000000000000000000000600052604160045260246000fd5b614cb482614c6b565b810181811067ffffffffffffffff82111715614cd357614cd2614c7c565b5b80604052505050565b6000614ce66143cc565b9050614cf28282614cab565b919050565b600067ffffffffffffffff821115614d1257614d11614c7c565b5b602082029050602081019050919050565b600080fd5b6000614d3b614d3684614cf7565b614cdc565b90508083825260208201905060208402830185811115614d5e57614d5d614d23565b5b835b81811015614d875780614d7388826145a9565b845260208401935050602081019050614d60565b5050509392505050565b600082601f830112614da657614da5614c66565b5b8135614db6848260208601614d28565b91505092915050565b60008060008060008060c08789031215614ddc57614ddb6143d6565b5b6000614dea89828a01614401565b9650506020614dfb89828a01614401565b955050604087013567ffffffffffffffff811115614e1c57614e1b6143db565b5b614e2889828a01614d91565b9450506060614e3989828a016145a9565b9350506080614e4a89828a01614401565b92505060a0614e5b89828a0161448c565b9150509295509295509295565b600060208284031215614e7e57614e7d6143d6565b5b6000614e8c8482850161448c565b91505092915050565b600082825260208201905092915050565b7f4f776e61626c653a2063616c6c6572206973206e6f7420746865206f776e6572600082015250565b6000614edc602083614e95565b9150614ee782614ea6565b602082019050919050565b60006020820190508181036000830152614f0b81614ecf565b9050919050565b7f4e487b7100000000000000000000000000000000000000000000000000000000600052603260045260246000fd5b7f4e487b7100000000000000000000000000000000000000000000000000000000600052601160045260246000fd5b6000614f7b826143e0565b9150614f86836143e0565b925082821015614f9957614f98614f41565b5b828203905092915050565b7f5541492068617320657870697265642e00000000000000000000000000000000600082015250565b6000614fda601083614e95565b9150614fe582614fa4565b602082019050919050565b6000602082019050818103600083015261500981614fcd565b9050919050565b600061501b826143e0565b91507fffffffffffffffffffffffffffffffffffffffffffffffffffffffffffffffff820361504d5761504c614f41565b5b600182019050919050565b60008160601b9050919050565b600061507082615058565b9050919050565b600061508282615065565b9050919050565b61509a61509582614463565b615077565b82525050565b60006150ac8284615089565b60148201915081905092915050565b6000819050919050565b60006150e06150db6150d6846150bb565b6145eb565b6143e0565b9050919050565b6150f0816150c5565b82525050565b600060408201905061510b6000830185614528565b61511860208301846150e7565b9392505050565b61512881614bf0565b811461513357600080fd5b50565b6000815190506151458161511f565b92915050565b600060208284031215615161576151606143d6565b5b600061516f84828501615136565b91505092915050565b7f53656e64657220646f6573206e6f74206861766520616374696f6e207065726d60008201527f697373696f6e20666f72206964656e7469747921000000000000000000000000602082015250565b60006151d4603483614e95565b91506151df82615178565b604082019050919050565b60006020820190508181036000830152615203816151c7565b9050919050565b7f4552433732315265676973747279000000000000000000000000000000000000600082015250565b6000615240600e83614e95565b915061524b8261520a565b602082019050919050565b6000602082019050818103600083015261526f81615233565b9050919050565b60008151905061528581614475565b92915050565b6000602082840312156152a1576152a06143d6565b5b60006152af84828501615276565b91505092915050565b7f45524337323120746f6b656e20646f65736e2774206578697374210000000000600082015250565b60006152ee601b83614e95565b91506152f9826152b8565b602082019050919050565b6000602082019050818103600083015261531d816152e1565b9050919050565b7f50726f66696c6553746f72616765000000000000000000000000000000000000600082015250565b600061535a600e83614e95565b915061536582615324565b602082019050919050565b600060208201905081810360008301526153898161534d565b9050919050565b60008151905061539f81614592565b92915050565b6000602082840312156153bb576153ba6143d6565b5b60006153c984828501615390565b91505092915050565b6000815190506153e1816143ea565b92915050565b6000602082840312156153fd576153fc6143d6565b5b600061540b848285016153d2565b91505092915050565b600061541f826143e0565b915061542a836143e0565b9250827fffffffffffffffffffffffffffffffffffffffffffffffffffffffffffffffff0382111561545f5761545e614f41565b5b828201905092915050565b600060408201905061547f6000830185614b65565b61548c60208301846144f4565b9392505050565b7f546f6b656e000000000000000000000000000000000000000000000000000000600082015250565b60006154c9600583614e95565b91506154d482615493565b602082019050919050565b600060208201905081810360008301526154f8816154bc565b9050919050565b6000819050919050565b61551a615515826143e0565b6154ff565b82525050565b600061552c8284615509565b60208201915081905092915050565b600081519050919050565b600081905092915050565b60005b8381101561556f578082015181840152602081019050615554565b8381111561557e576000848401525b50505050565b600061558f8261553b565b6155998185615546565b93506155a9818560208601615551565b80840191505092915050565b60006155c18284615584565b915081905092915050565b60006155d7826143e0565b91506155e2836143e0565b9250817fffffffffffffffffffffffffffffffffffffffffffffffffffffffffffffffff048311821515161561561b5761561a614f41565b5b828202905092915050565b7f4e487b7100000000000000000000000000000000000000000000000000000000600052601260045260246000fd5b6000615660826143e0565b915061566b836143e0565b92508261567b5761567a615626565b5b828204905092915050565b7f7374617465436f6d6d6974486173682063616e6e6f74206265207a65726f0000600082015250565b60006156bc601e83614e95565b91506156c782615686565b602082019050919050565b600060208201905081810360008301526156eb816156af565b9050919050565b7f417373657274696f6e5265676973747279000000000000000000000000000000600082015250565b6000615728601183614e95565b9150615733826156f2565b602082019050919050565b600060208201905081810360008301526157578161571b565b9050919050565b7f5374617465436f6d6d69744861736820616c7265616479206578697374732100600082015250565b6000615794601f83614e95565b915061579f8261575e565b602082019050919050565b600060208201905081810360008301526157c381615787565b9050919050565b60006040820190506157df6000830185614b65565b6157ec6020830184614b65565b9392505050565b7f53656e64657220616c6c6f77616e6365206d75737420626520657175616c207460008201527f6f206f7220686967686572207468616e2063686f73656e20616d6f756e740000602082015250565b600061584f603e83614e95565b915061585a826157f3565b604082019050919050565b6000602082019050818103600083015261587e81615842565b9050919050565b7f53656e6465722062616c616e6365206d75737420626520657175616c20746f2060008201527f6f7220686967686572207468616e2063686f73656e20616d6f756e7421000000602082015250565b60006158e1603d83614e95565b91506158ec82615885565b604082019050919050565b60006020820190508181036000830152615910816158d4565b9050919050565b7f55414920616c7265616479206578697374732100000000000000000000000000600082015250565b600061594d601383614e95565b915061595882615917565b602082019050919050565b6000602082019050818103600083015261597c81615940565b9050919050565b60006060820190506159986000830186614b65565b6159a56020830185614b65565b6159b260408301846144f4565b949350505050565b6000819050919050565b60006159df6159da6159d5846159ba565b6145eb565b6143e0565b9050919050565b6159ef816159c4565b82525050565b6000606082019050615a0a6000830186614528565b615a176020830185614b65565b615a2460408301846159e6565b949350505050565b7f5541492063616e6e6f74206265207a65726f0000000000000000000000000000600082015250565b6000615a62601283614e95565b9150615a6d82615a2c565b602082019050919050565b60006020820190508181036000830152615a9181615a55565b9050919050565b7f6e65775374617465436f6d6d6974486173682063616e6e6f74206265207a657260008201527f6f00000000000000000000000000000000000000000000000000000000000000602082015250565b6000615af4602183614e95565b9150615aff82615a98565b604082019050919050565b60006020820190508181036000830152615b2381615ae7565b9050919050565b7f554149206d757374206578697374210000000000000000000000000000000000600082015250565b6000615b60600f83614e95565b9150615b6b82615b2a565b602082019050919050565b60006020820190508181036000830152615b8f81615b53565b9050919050565b7f45524337323120746f6b656e206d757374206578697374210000000000000000600082015250565b6000615bcc601883614e95565b9150615bd782615b96565b602082019050919050565b60006020820190508181036000830152615bfb81615bbf565b9050919050565b7f53656e646572206973206e6f74206f776e6572206f6620746865206173736574600082015250565b6000615c38602083614e95565b9150615c4382615c02565b602082019050919050565b60006020820190508181036000830152615c6781615c2b565b9050919050565b7f5072696365206c696d697420686173206265656e206578636565646564210000600082015250565b6000615ca4601e83614e95565b9150615caf82615c6e565b602082019050919050565b60006020820190508181036000830152615cd381615c97565b9050919050565b7f4e6f64652068617320616c726561647920616e7377657265642074686520636860008201527f616c6c656e676521000000000000000000000000000000000000000000000000602082015250565b6000615d36602883614e95565b9150615d4182615cda565b604082019050919050565b60006020820190508181036000830152615d6581615d29565b9050919050565b7f436f6e747269627574696f6e2072616e6b20697320746f6f206c6f7700000000600082015250565b6000615da2601c83614e95565b9150615dad82615d6c565b602082019050919050565b60006020820190508181036000830152615dd181615d95565b9050919050565b6000819050919050565b615df3615dee8261451e565b615dd8565b82525050565b6000615e058285615de2565b602082019150615e158284615509565b6020820191508190509392505050565b7f526f6f74206861736820646f65736e2774206d61746368000000000000000000600082015250565b6000615e5b601783614e95565b9150615e6682615e25565b602082019050919050565b60006020820190508181036000830152615e8a81615e4e565b9050919050565b7f4f776e61626c653a206e6577206f776e657220697320746865207a65726f206160008201527f6464726573730000000000000000000000000000000000000000000000000000602082015250565b6000615eed602683614e95565b9150615ef882615e91565b604082019050919050565b60006020820190508181036000830152615f1c81615ee0565b9050919050565b6000615f2f8285615de2565b602082019150615f3f8284615089565b6014820191508190509392505050565b6000615f5a826143e0565b9150615f65836143e0565b925082615f7557615f74615626565b5b828206905092915050565b6000615f8b826143e0565b915060008203615f9e57615f9d614f41565b5b60018203905091905056fea264697066735822122030280948432515994a511bf713f5cdf66849909f140de9b5fdbc259978f0777064736f6c634300080e0033",
  "immutableReferences": {},
  "source": "// SPDX-License-Identifier: MIT\n\npragma solidity ^0.8.0;\n\nimport \"@openzeppelin/contracts/token/ERC20/IERC20.sol\";\nimport \"@openzeppelin/contracts/access/Ownable.sol\";\nimport \"@openzeppelin/contracts/utils/cryptography/MerkleProof.sol\";\nimport \"./AssertionRegistry.sol\";\nimport \"./ERC721Registry.sol\";\nimport \"./Hub.sol\";\nimport \"./Identity.sol\";\nimport \"./storage/ProfileStorage.sol\";\n\n// TODO linked assertions\n// TODO storages\n// TODO contributions\n// TODO challenges\n\ncontract UAIRegistry is Ownable {\n    Hub public hub;\n\n    struct AssetRecord {\n        uint256 creationTimestamp;\n        address controller;\n        bytes32 stateCommitHash;\n        uint256 [] epochs;\n        uint256 size;\n        uint256 priceLimit;\n        bytes32 [][] holderIds;\n        uint256 [][] holderDistances;\n        uint256 [][] holderPrices;\n        uint256 [] holderCount;\n        uint256 stake;\n    }\n\n    mapping(uint256 => AssetRecord) public assetRecords;\n    mapping(bytes32 => uint256) public assetStake;\n\n    mapping(bytes1 => uint) bytesLookup;\n\n    uint256 _numberOfEpochs;\n    uint256 _epochValidityInBlocks;\n    uint256 _blockTime;\n    uint256 _numberOfHolders;\n\n    // events\n    event AssetCreated(uint256 indexed UAI, bytes32 indexed stateCommitHash);\n    event AssetUpdated(uint256 indexed UAI, bytes32 indexed stateCommitHash);\n    event TokensDepositedToAsset(bytes32 indexed UAI, uint256 indexed amount, address indexed depositor);\n\n    constructor(address hubAddress) {\n        require(hubAddress != address(0));\n        hub = Hub(hubAddress);\n\n        bytesLookup[0x00] = 0;\n        bytesLookup[0x01] = 1;\n        bytesLookup[0x02] = 1;\n        bytesLookup[0x03] = 2;\n        bytesLookup[0x04] = 1;\n        bytesLookup[0x05] = 2;\n        bytesLookup[0x06] = 2;\n        bytesLookup[0x07] = 3;\n        bytesLookup[0x08] = 1;\n        bytesLookup[0x09] = 2;\n        bytesLookup[0x0a] = 2;\n        bytesLookup[0x0b] = 3;\n        bytesLookup[0x0c] = 2;\n        bytesLookup[0x0d] = 3;\n        bytesLookup[0x0e] = 3;\n        bytesLookup[0x0f] = 4;\n\n        _numberOfEpochs = 5;\n        _blockTime = 12;\n        _numberOfHolders = 3;\n        _epochValidityInBlocks = 20;\n    }\n\n    function createAsset(bytes32 stateCommitHash, uint256 tokenAmount, uint256 size, uint holdingTimeInSeconds) public returns (uint256) {\n        require(stateCommitHash != 0, \"stateCommitHash cannot be zero\");\n        require(AssertionRegistry(hub.getContractAddress(\"AssertionRegistry\")).getAssertionCreationTimestamp(stateCommitHash) == 0, \"StateCommitHash already exists!\");\n\n        IERC20 tokenContract = IERC20(hub.getContractAddress(\"Token\"));\n        require(tokenContract.allowance(msg.sender, address(this)) >= tokenAmount, \"Sender allowance must be equal to or higher than chosen amount\");\n        require(tokenContract.balanceOf(msg.sender) >= tokenAmount, \"Sender balance must be equal to or higher than chosen amount!\");\n\n        // TODO ERC 1155?\n        uint256 UAI = ERC721Registry(hub.getContractAddress(\"ERC721Registry\")).mintUAI(msg.sender);\n        require(assetRecords[UAI].creationTimestamp == 0, \"UAI already exists!\");\n\n        // TODO introduce old holding contract?\n        tokenContract.transferFrom(msg.sender, address(this), tokenAmount);\n        assetRecords[UAI].stake += tokenAmount;\n\n        AssertionRegistry(hub.getContractAddress(\"AssertionRegistry\")).createAssertionRecord(stateCommitHash, msg.sender, 1);\n\n        // TODO reference na AssertionRegistry entry\n        assetRecords[UAI].stateCommitHash = stateCommitHash;\n        assetRecords[UAI].creationTimestamp = block.timestamp;\n        assetRecords[UAI].size = size;\n\n        assetRecords[UAI].epochs = generateEpochs(block.number, _numberOfEpochs, _blockTime, holdingTimeInSeconds);\n        assetRecords[UAI].priceLimit = tokenAmount / _numberOfEpochs / _numberOfHolders;\n\n        assetRecords[UAI].holderIds = new bytes32[][](5);\n        assetRecords[UAI].holderDistances = new uint256[][](5);\n        assetRecords[UAI].holderPrices = new uint256[][](5);\n        assetRecords[UAI].holderCount = new uint256[](5);\n        for (uint i = 0; i < 5; i++) {\n            assetRecords[UAI].holderIds[i] = new bytes32[](3);\n            assetRecords[UAI].holderDistances[i] = new uint256[](3);\n            assetRecords[UAI].holderPrices[i] = new uint256[](3);\n            assetRecords[UAI].holderCount[i] = 0;\n        }\n\n        emit AssetCreated(UAI, stateCommitHash);\n\n        return UAI;\n    }\n\n    function generateEpochs(uint blockNumber, uint256 numberOfEpochs, uint256 blockTime, uint256 holdingTimeInSeconds) public pure returns (uint256 [] memory) {\n        uint256 [] memory epochs = new uint256[](numberOfEpochs + 1);\n        for (uint i = 0; i < numberOfEpochs + 1; i++) {\n            epochs[i] = blockNumber + i * holdingTimeInSeconds / blockTime / numberOfEpochs;\n        }\n\n        return epochs;\n    }\n\n    function getEpochs(uint256 UAI) public view returns (uint256 [] memory) {\n        return assetRecords[UAI].epochs;\n    }\n\n    function getEpoch(uint256 UAI) public view returns (uint) {\n        uint i;\n        require(block.number >= assetRecords[UAI].epochs[0] && block.number <= assetRecords[UAI].epochs[assetRecords[UAI].epochs.length - 1], \"UAI has expired.\");\n        for (i = 1; i < assetRecords[UAI].epochs.length - 1; i++) {\n            if (block.number < assetRecords[UAI].epochs[i]) {\n                return i - 1;\n            }\n        }\n\n        return i - 1;\n    }\n\n    function getEpoch(uint256 UAI, uint256 blockNumber) public view returns (uint256) {\n        uint i;\n        require(block.number >= assetRecords[UAI].epochs[0] && block.number <= assetRecords[UAI].epochs[assetRecords[UAI].epochs.length - 1], \"UAI has expired.\");\n        for (i = 1; i < assetRecords[UAI].epochs.length - 1; i++) {\n            if (blockNumber < assetRecords[UAI].epochs[i]) {\n                return i - 1;\n            }\n        }\n\n        return i - 1;\n    }\n\n    function isEpochActive(uint256 UAI, uint256 epoch) public view returns (bool) {\n        if (assetRecords[UAI].epochs.length - 1 > epoch) {\n            if (assetRecords[UAI].epochs[epoch] <= block.number && assetRecords[UAI].epochs[epoch] + _epochValidityInBlocks >= block.number) {\n                return true;\n            }\n        }\n        return false;\n    }\n\n    function hammingDistance(bytes32 x, bytes32 y) public view returns (uint) {\n        bytes32 xor = x ^ y;\n        uint distance = 0;\n        for (uint i = 0; i < xor.length; i++) {\n            distance += bytesLookup[xor[i] >> 4];\n            distance += bytesLookup[(xor[i] << 4) >> 4];\n        }\n\n        return distance;\n    }\n\n    function getChallenge(uint256 UAI, uint256 blockNumber, address identity) public view returns (uint256) {\n        uint256 epoch = getEpoch(UAI, blockNumber);\n        bool isActive = isEpochActive(UAI, epoch);\n\n        if (isActive) {\n            return calculateChallenge(UAI, blockNumber, identity);\n        } else {\n            return 0;\n        }\n    }\n\n    function calculateChallenge(uint256 UAI, uint256 blockNumber, address identity) public view returns (uint256) {\n        require(ERC734(identity).keyHasPurpose(keccak256(abi.encodePacked(msg.sender)), 2), \"Sender does not have action permission for identity!\");\n        return uint256(sha256(abi.encodePacked(blockhash(blockNumber), identity))) % assetRecords[UAI].size;\n    }\n\n\n    function getContributionRank(uint256 UAI, uint256 epoch, address identity) public view returns (uint256) {\n        ProfileStorage profileStorage = ProfileStorage(hub.getContractAddress(\"ProfileStorage\"));\n        bytes32 nodeId = profileStorage.getNodeId(identity);\n        uint256 distance = hammingDistance(nodeId, sha256(abi.encodePacked(UAI)));\n        uint i;\n        for (i = 0; i < assetRecords[UAI].holderCount[epoch]; i++) {\n            if (assetRecords[UAI].holderDistances[epoch][i] > distance)\n            {\n                return i;\n            }\n        }\n        return i;\n    }\n\n    function getContributors(uint256 UAI) public view returns (bytes32 [][] memory, uint256[][] memory, uint256[][] memory, uint256 [] memory) {\n        return (assetRecords[UAI].holderIds, assetRecords[UAI].holderDistances, assetRecords[UAI].holderPrices, assetRecords[UAI].holderCount);\n    }\n\n\n    function addContributor(uint256 UAI, uint256 epoch, uint rank, uint256 price, address identity) internal {\n        uint256 length = assetRecords[UAI].holderCount[epoch];\n        for (uint i = length; i >= rank + 1; i--) {\n            if (i == 3) {\n                continue;\n            }\n            assetRecords[UAI].holderIds[epoch][i] = assetRecords[UAI].holderIds[epoch][i - 1];\n            assetRecords[UAI].holderDistances[epoch][i] = assetRecords[UAI].holderDistances[epoch][i - 1];\n            assetRecords[UAI].holderPrices[epoch][i] = assetRecords[UAI].holderPrices[epoch][i - 1];\n        }\n\n        ProfileStorage profileStorage = ProfileStorage(hub.getContractAddress(\"ProfileStorage\"));\n        bytes32 nodeId = profileStorage.getNodeId(identity);\n\n        assetRecords[UAI].holderIds[epoch][rank] = nodeId;\n        assetRecords[UAI].holderDistances[epoch][rank] = hammingDistance(nodeId, sha256(abi.encodePacked(UAI)));\n        assetRecords[UAI].holderPrices[epoch][rank] = price;\n\n        if (length < 3) {\n            assetRecords[UAI].holderCount[epoch] += 1;\n        }\n    }\n\n    function answerChallenge(uint256 UAI, uint256 blockNumber, bytes32 [] memory proof, bytes32 leaf, uint256 price, address identity) public {\n        require(ERC721Registry(hub.getContractAddress(\"ERC721Registry\")).exists(UAI) == true, \"ERC721 token doesn't exist!\");\n        require(price <= assetRecords[UAI].priceLimit, \"Price limit has been exceeded!\");\n        require(ERC721Registry(hub.getContractAddress(\"ERC721Registry\")).exists(UAI) == true, \"ERC721 token doesn't exist!\");\n        require(ERC734(identity).keyHasPurpose(keccak256(abi.encodePacked(msg.sender)), 2), \"Sender does not have action permission for identity!\");\n\n        uint256 epoch = getEpoch(UAI, blockNumber);\n        bool isActive = isEpochActive(UAI, epoch);\n\n        require(isActive);\n\n        // TODO Bid with lower price\n        ProfileStorage profileStorage = ProfileStorage(hub.getContractAddress(\"ProfileStorage\"));\n        bytes32 nodeId = profileStorage.getNodeId(identity);\n        for (uint256 i = 0; i < assetRecords[UAI].holderCount[epoch]; i++) {\n            require(nodeId != assetRecords[UAI].holderIds[epoch][i], \"Node has already answered the challenge!\");\n        }\n\n        uint256 challenge = calculateChallenge(UAI, blockNumber, identity);\n        uint256 rank = getContributionRank(UAI, epoch, identity);\n        // 0, 1, 2, 3\n        require(rank < 3, \"Contribution rank is too low\");\n\n        require(MerkleProof.verify(proof, assetRecords[UAI].stateCommitHash, keccak256(abi.encodePacked(leaf, challenge))), \"Root hash doesn't match\");\n        addContributor(UAI, epoch, rank, price, identity);\n    }\n\n\n    function getReward(uint256 UAI, uint256 epoch, address identity) public {\n        require(ERC734(identity).keyHasPurpose(keccak256(abi.encodePacked(msg.sender)), 2), \"Sender does not have action permission for identity!\");\n        require(ERC721Registry(hub.getContractAddress(\"ERC721Registry\")).exists(UAI) == true, \"ERC721 token doesn't exist!\");\n\n        bool isActive = isEpochActive(UAI, epoch);\n\n        require(isActive == false);\n\n        ProfileStorage profileStorage = ProfileStorage(hub.getContractAddress(\"ProfileStorage\"));\n        bytes32 nodeId = profileStorage.getNodeId(identity);\n\n        for (uint i = 0; i < assetRecords[UAI].holderCount[epoch]; i++) {\n            if (assetRecords[UAI].holderIds[epoch][i] == nodeId) {\n                uint256 amount = assetRecords[UAI].holderPrices[epoch][i];\n                require(amount > 0);\n                assetRecords[UAI].holderPrices[epoch][i] = 0;\n                assetRecords[UAI].stake -= amount;\n                profileStorage.setStake(identity, profileStorage.getStake(identity) + amount);\n                IERC20 tokenContract = IERC20(hub.getContractAddress(\"Token\"));\n                //                require(tokenContract.allowance(msg.sender, address(this)) >= tokenAmount, \"Sender allowance must be equal to or higher than chosen amount\");\n                //                require(tokenContract.balanceOf(msg.sender) >= tokenAmount, \"Sender balance must be equal to or higher than chosen amount!\");\n                tokenContract.transfer(hub.getContractAddress(\"ProfileStorage\"), amount);\n\n                break;\n            }\n        }\n    }\n\n\n    function updateAsset(uint256 UAI, bytes32 newStateCommitHash) public returns (uint256) {\n        require(UAI != 0, \"UAI cannot be zero\");\n        require(newStateCommitHash != 0, \"newStateCommitHash cannot be zero\");\n        require(assetRecords[UAI].creationTimestamp != 0, \"UAI must exist!\");\n        require(ERC721Registry(hub.getContractAddress(\"ERC721Registry\")).exists(UAI) == true, \"ERC721 token must exist!\");\n        require(AssertionRegistry(hub.getContractAddress(\"AssertionRegistry\")).getAssertionCreationTimestamp(newStateCommitHash) == 0, \"StateCommitHash already exists!\");\n\n        require(ERC721Registry(hub.getContractAddress(\"ERC721Registry\")).ownerOf(UAI) == msg.sender, \"Sender is not owner of the asset\");\n\n        AssertionRegistry(hub.getContractAddress(\"AssertionRegistry\")).createAssertionRecord(newStateCommitHash, msg.sender, 1);\n        // todo: update when AssertionRegistry is updated\n        assetRecords[UAI].stateCommitHash = newStateCommitHash;\n        // todo: store old commits later\n\n        emit AssetUpdated(UAI, newStateCommitHash);\n\n        return UAI;\n    }\n\n    // getters\n    function getAssetStateCommitHash(uint256 UAI) public view returns (bytes32 stateCommitHash){\n        return assetRecords[UAI].stateCommitHash;\n    }\n\n    function getAssetOwner(uint256 UAI) public view returns (address owner){\n        return ERC721Registry(hub.getContractAddress(\"ERC721Registry\")).ownerOf(UAI);\n    }\n\n    function getAssetCreationTimestamp(uint256 UAI) public view returns (uint256 creationTimestamp){\n        return assetRecords[UAI].creationTimestamp;\n    }\n\n    function getNumberOfEpochs() public view returns (uint256) {\n        return _numberOfEpochs;\n    }\n\n    function setNumberOfEpochs(uint256 numberOfEpochs) public onlyOwner {\n        _numberOfEpochs = numberOfEpochs;\n    }\n\n    function getBlockTime() public view returns (uint256) {\n        return _blockTime;\n    }\n\n    function setBlockTime(uint256 blockTime) public onlyOwner {\n        _blockTime = blockTime;\n    }\n\n    function getNumberOfHolders() public view returns (uint256) {\n        return _numberOfHolders;\n    }\n\n    function setNumberOfHolders(uint256 numberOfHolders) public onlyOwner {\n        _numberOfHolders = numberOfHolders;\n    }\n\n    function getEpochValidityInBlocks() public view returns (uint256) {\n        return _epochValidityInBlocks;\n    }\n\n    function setEpochValidityInBlocks(uint256 epochValidityInBlocks) public onlyOwner {\n        _epochValidityInBlocks = epochValidityInBlocks;\n    }\n}",
  "sourcePath": "/Users/miloskotlar/dkg-onchain-module-v6/contracts/UAIRegistry.sol",
  "compiler": {
    "name": "solc",
    "version": "0.8.14+commit.80d49f37.Emscripten.clang"
  },
  "schemaVersion": "3.4.3",
  "updatedAt": "2022-06-23T06:15:56.494Z",
  "networkType": "ethereum",
  "devdoc": {
    "kind": "dev",
    "methods": {
      "owner()": {
        "details": "Returns the address of the current owner."
      },
      "renounceOwnership()": {
        "details": "Leaves the contract without owner. It will not be possible to call `onlyOwner` functions anymore. Can only be called by the current owner. NOTE: Renouncing ownership will leave the contract without an owner, thereby removing any functionality that is only available to the owner."
      },
      "transferOwnership(address)": {
        "details": "Transfers ownership of the contract to a new account (`newOwner`). Can only be called by the current owner."
      }
    },
    "version": 1
  },
  "userdoc": {
    "kind": "user",
    "methods": {},
    "version": 1
  }
}